{
  "_format": "hh-sol-artifact-1",
  "contractName": "EngagementQuests",
  "sourceName": "contracts/EngagementQuests.sol",
  "abi": [
    {
      "inputs": [
        {
          "internalType": "address",
          "name": "_token",
          "type": "address"
        },
        {
          "internalType": "address",
          "name": "_staking",
          "type": "address"
        },
        {
          "internalType": "address",
          "name": "_voting",
          "type": "address"
        }
      ],
      "stateMutability": "nonpayable",
      "type": "constructor"
    },
    {
      "inputs": [
        {
          "internalType": "address",
          "name": "owner",
          "type": "address"
        }
      ],
      "name": "OwnableInvalidOwner",
      "type": "error"
    },
    {
      "inputs": [
        {
          "internalType": "address",
          "name": "account",
          "type": "address"
        }
      ],
      "name": "OwnableUnauthorizedAccount",
      "type": "error"
    },
    {
      "anonymous": false,
      "inputs": [
        {
          "indexed": true,
          "internalType": "address",
          "name": "previousOwner",
          "type": "address"
        },
        {
          "indexed": true,
          "internalType": "address",
          "name": "newOwner",
          "type": "address"
        }
      ],
      "name": "OwnershipTransferred",
      "type": "event"
    },
    {
      "anonymous": false,
      "inputs": [
        {
          "indexed": true,
          "internalType": "address",
          "name": "user",
          "type": "address"
        },
        {
          "indexed": false,
          "internalType": "enum EngagementQuests.QuestType",
          "name": "quest",
          "type": "uint8"
        }
      ],
      "name": "QuestCompleted",
      "type": "event"
    },
    {
      "inputs": [
        {
          "internalType": "address",
          "name": "user",
          "type": "address"
        }
      ],
      "name": "checkQuests",
      "outputs": [],
      "stateMutability": "nonpayable",
      "type": "function"
    },
    {
      "inputs": [
        {
          "internalType": "address",
          "name": "",
          "type": "address"
        },
        {
          "internalType": "enum EngagementQuests.QuestType",
          "name": "",
          "type": "uint8"
        }
      ],
      "name": "completed",
      "outputs": [
        {
          "internalType": "bool",
          "name": "",
          "type": "bool"
        }
      ],
      "stateMutability": "view",
      "type": "function"
    },
    {
      "inputs": [
        {
          "internalType": "uint256",
          "name": "amount",
          "type": "uint256"
        }
      ],
      "name": "fundContract",
      "outputs": [],
      "stateMutability": "nonpayable",
      "type": "function"
    },
    {
      "inputs": [],
      "name": "owner",
      "outputs": [
        {
          "internalType": "address",
          "name": "",
          "type": "address"
        }
      ],
      "stateMutability": "view",
      "type": "function"
    },
    {
      "inputs": [
        {
          "internalType": "address",
          "name": "user",
          "type": "address"
        }
      ],
      "name": "recordVote",
      "outputs": [],
      "stateMutability": "nonpayable",
      "type": "function"
    },
    {
      "inputs": [],
      "name": "renounceOwnership",
      "outputs": [],
      "stateMutability": "nonpayable",
      "type": "function"
    },
    {
      "inputs": [],
      "name": "rewardToken",
      "outputs": [
        {
          "internalType": "contract IERC20",
          "name": "",
          "type": "address"
        }
      ],
      "stateMutability": "view",
      "type": "function"
    },
    {
      "inputs": [],
      "name": "stakingContract",
      "outputs": [
        {
          "internalType": "contract IRealEstateStaking",
          "name": "",
          "type": "address"
        }
      ],
      "stateMutability": "view",
      "type": "function"
    },
    {
      "inputs": [
        {
          "internalType": "address",
          "name": "newOwner",
          "type": "address"
        }
      ],
      "name": "transferOwnership",
      "outputs": [],
      "stateMutability": "nonpayable",
      "type": "function"
    },
    {
      "inputs": [
        {
          "internalType": "address",
          "name": "",
          "type": "address"
        }
      ],
      "name": "voteCount",
      "outputs": [
        {
          "internalType": "uint256",
          "name": "",
          "type": "uint256"
        }
      ],
      "stateMutability": "view",
      "type": "function"
    },
    {
      "inputs": [],
      "name": "votingContract",
      "outputs": [
        {
          "internalType": "contract IPropertyVoting",
          "name": "",
          "type": "address"
        }
      ],
      "stateMutability": "view",
      "type": "function"
    }
  ],
  "bytecode": "0x608060405234801561001057600080fd5b50604051611547380380611547833981810160405281019061003291906102a7565b33600073ffffffffffffffffffffffffffffffffffffffff168173ffffffffffffffffffffffffffffffffffffffff16036100a55760006040517f1e4fbdf700000000000000000000000000000000000000000000000000000000815260040161009c9190610309565b60405180910390fd5b6100b48161018060201b60201c565b5082600160006101000a81548173ffffffffffffffffffffffffffffffffffffffff021916908373ffffffffffffffffffffffffffffffffffffffff16021790555081600260006101000a81548173ffffffffffffffffffffffffffffffffffffffff021916908373ffffffffffffffffffffffffffffffffffffffff16021790555080600360006101000a81548173ffffffffffffffffffffffffffffffffffffffff021916908373ffffffffffffffffffffffffffffffffffffffff160217905550505050610324565b60008060009054906101000a900473ffffffffffffffffffffffffffffffffffffffff169050816000806101000a81548173ffffffffffffffffffffffffffffffffffffffff021916908373ffffffffffffffffffffffffffffffffffffffff1602179055508173ffffffffffffffffffffffffffffffffffffffff168173ffffffffffffffffffffffffffffffffffffffff167f8be0079c531659141344cd1fd0a4f28419497f9722a3daafe3b4186f6b6457e060405160405180910390a35050565b600080fd5b600073ffffffffffffffffffffffffffffffffffffffff82169050919050565b600061027482610249565b9050919050565b61028481610269565b811461028f57600080fd5b50565b6000815190506102a18161027b565b92915050565b6000806000606084860312156102c0576102bf610244565b5b60006102ce86828701610292565b93505060206102df86828701610292565b92505060406102f086828701610292565b9150509250925092565b61030381610269565b82525050565b600060208201905061031e60008301846102fa565b92915050565b611214806103336000396000f3fe608060405234801561001057600080fd5b50600436106100a95760003560e01c80638da5cb5b116100715780638da5cb5b1461015057806392c1ff441461016e578063c1fc006a1461018a578063ee99205c146101a8578063f2fde38b146101c6578063f7c618c1146101e2576100a9565b80633519a2f8146100ae5780635e3cd7bc146100ca578063715018a6146100fa578063813ecde914610104578063833f1d3914610134575b600080fd5b6100c860048036038101906100c39190610bbb565b610200565b005b6100e460048036038101906100df9190610c46565b6102ae565b6040516100f19190610c82565b60405180910390f35b6101026102c6565b005b61011e60048036038101906101199190610cc2565b6102da565b60405161012b9190610d1d565b60405180910390f35b61014e60048036038101906101499190610c46565b610309565b005b610158610699565b6040516101659190610d47565b60405180910390f35b61018860048036038101906101839190610c46565b6106c2565b005b6101926107aa565b60405161019f9190610dc1565b60405180910390f35b6101b06107d0565b6040516101bd9190610dfd565b60405180910390f35b6101e060048036038101906101db9190610c46565b6107f6565b005b6101ea61087c565b6040516101f79190610e39565b60405180910390f35b6102086108a2565b600160009054906101000a900473ffffffffffffffffffffffffffffffffffffffff1673ffffffffffffffffffffffffffffffffffffffff166323b872dd3330846040518463ffffffff1660e01b815260040161026793929190610e54565b6020604051808303816000875af1158015610286573d6000803e3d6000fd5b505050506040513d601f19601f820116820180604052508101906102aa9190610eb7565b5050565b60056020528060005260406000206000915090505481565b6102ce6108a2565b6102d86000610929565b565b60046020528160005260406000206020528060005260406000206000915091509054906101000a900460ff1681565b600460008273ffffffffffffffffffffffffffffffffffffffff1673ffffffffffffffffffffffffffffffffffffffff168152602001908152602001600020600080600281111561035d5761035c610ee4565b5b600281111561036f5761036e610ee4565b5b815260200190815260200160002060009054906101000a900460ff161580156104305750600360009054906101000a900473ffffffffffffffffffffffffffffffffffffffff1673ffffffffffffffffffffffffffffffffffffffff166309eef43e826040518263ffffffff1660e01b81526004016103ee9190610d47565b602060405180830381865afa15801561040b573d6000803e3d6000fd5b505050506040513d601f19601f8201168201806040525081019061042f9190610eb7565b5b1561044a57610449816000678ac7230489e800006109ed565b5b600460008273ffffffffffffffffffffffffffffffffffffffff1673ffffffffffffffffffffffffffffffffffffffff16815260200190815260200160002060006001600281111561049f5761049e610ee4565b5b60028111156104b1576104b0610ee4565b5b815260200190815260200160002060009054906101000a900460ff166105ac576000600260009054906101000a900473ffffffffffffffffffffffffffffffffffffffff1673ffffffffffffffffffffffffffffffffffffffff166316934fc4836040518263ffffffff1660e01b815260040161052e9190610d47565b608060405180830381865afa15801561054b573d6000803e3d6000fd5b505050506040513d601f19601f8201168201806040525081019061056f9190611031565b9050683635c9adc5dea0000081600001511015801561059057508060600151155b156105aa576105a982600167d02ab486cedc00006109ed565b5b505b600460008273ffffffffffffffffffffffffffffffffffffffff1673ffffffffffffffffffffffffffffffffffffffff1681526020019081526020016000206000600280811115610600576105ff610ee4565b5b600281111561061257610611610ee4565b5b815260200190815260200160002060009054906101000a900460ff1615801561067b57506003600560008373ffffffffffffffffffffffffffffffffffffffff1673ffffffffffffffffffffffffffffffffffffffff1681526020019081526020016000205410155b15610696576106958160026801158e460913d000006109ed565b5b50565b60008060009054906101000a900473ffffffffffffffffffffffffffffffffffffffff16905090565b600360009054906101000a900473ffffffffffffffffffffffffffffffffffffffff1673ffffffffffffffffffffffffffffffffffffffff163373ffffffffffffffffffffffffffffffffffffffff1614610752576040517f08c379a0000000000000000000000000000000000000000000000000000000008152600401610749906110bb565b60405180910390fd5b600560008273ffffffffffffffffffffffffffffffffffffffff1673ffffffffffffffffffffffffffffffffffffffff16815260200190815260200160002060008154809291906107a29061110a565b919050555050565b600360009054906101000a900473ffffffffffffffffffffffffffffffffffffffff1681565b600260009054906101000a900473ffffffffffffffffffffffffffffffffffffffff1681565b6107fe6108a2565b600073ffffffffffffffffffffffffffffffffffffffff168173ffffffffffffffffffffffffffffffffffffffff16036108705760006040517f1e4fbdf70000000000000000000000000000000000000000000000000000000081526004016108679190610d47565b60405180910390fd5b61087981610929565b50565b600160009054906101000a900473ffffffffffffffffffffffffffffffffffffffff1681565b6108aa610b6e565b73ffffffffffffffffffffffffffffffffffffffff166108c8610699565b73ffffffffffffffffffffffffffffffffffffffff1614610927576108eb610b6e565b6040517f118cdaa700000000000000000000000000000000000000000000000000000000815260040161091e9190610d47565b60405180910390fd5b565b60008060009054906101000a900473ffffffffffffffffffffffffffffffffffffffff169050816000806101000a81548173ffffffffffffffffffffffffffffffffffffffff021916908373ffffffffffffffffffffffffffffffffffffffff1602179055508173ffffffffffffffffffffffffffffffffffffffff168173ffffffffffffffffffffffffffffffffffffffff167f8be0079c531659141344cd1fd0a4f28419497f9722a3daafe3b4186f6b6457e060405160405180910390a35050565b6001600460008573ffffffffffffffffffffffffffffffffffffffff1673ffffffffffffffffffffffffffffffffffffffff1681526020019081526020016000206000846002811115610a4357610a42610ee4565b5b6002811115610a5557610a54610ee4565b5b815260200190815260200160002060006101000a81548160ff021916908315150217905550600160009054906101000a900473ffffffffffffffffffffffffffffffffffffffff1673ffffffffffffffffffffffffffffffffffffffff1663a9059cbb84836040518363ffffffff1660e01b8152600401610ad7929190611152565b6020604051808303816000875af1158015610af6573d6000803e3d6000fd5b505050506040513d601f19601f82011682018060405250810190610b1a9190610eb7565b508273ffffffffffffffffffffffffffffffffffffffff167f99a94c1a1b8083d4433a69e9a19337f63587f5a93bb897f6fa2ffecc43646b8483604051610b6191906111c3565b60405180910390a2505050565b600033905090565b6000604051905090565b600080fd5b6000819050919050565b610b9881610b85565b8114610ba357600080fd5b50565b600081359050610bb581610b8f565b92915050565b600060208284031215610bd157610bd0610b80565b5b6000610bdf84828501610ba6565b91505092915050565b600073ffffffffffffffffffffffffffffffffffffffff82169050919050565b6000610c1382610be8565b9050919050565b610c2381610c08565b8114610c2e57600080fd5b50565b600081359050610c4081610c1a565b92915050565b600060208284031215610c5c57610c5b610b80565b5b6000610c6a84828501610c31565b91505092915050565b610c7c81610b85565b82525050565b6000602082019050610c976000830184610c73565b92915050565b60038110610caa57600080fd5b50565b600081359050610cbc81610c9d565b92915050565b60008060408385031215610cd957610cd8610b80565b5b6000610ce785828601610c31565b9250506020610cf885828601610cad565b9150509250929050565b60008115159050919050565b610d1781610d02565b82525050565b6000602082019050610d326000830184610d0e565b92915050565b610d4181610c08565b82525050565b6000602082019050610d5c6000830184610d38565b92915050565b6000819050919050565b6000610d87610d82610d7d84610be8565b610d62565b610be8565b9050919050565b6000610d9982610d6c565b9050919050565b6000610dab82610d8e565b9050919050565b610dbb81610da0565b82525050565b6000602082019050610dd66000830184610db2565b92915050565b6000610de782610d8e565b9050919050565b610df781610ddc565b82525050565b6000602082019050610e126000830184610dee565b92915050565b6000610e2382610d8e565b9050919050565b610e3381610e18565b82525050565b6000602082019050610e4e6000830184610e2a565b92915050565b6000606082019050610e696000830186610d38565b610e766020830185610d38565b610e836040830184610c73565b949350505050565b610e9481610d02565b8114610e9f57600080fd5b50565b600081519050610eb181610e8b565b92915050565b600060208284031215610ecd57610ecc610b80565b5b6000610edb84828501610ea2565b91505092915050565b7f4e487b7100000000000000000000000000000000000000000000000000000000600052602160045260246000fd5b600080fd5b6000601f19601f8301169050919050565b7f4e487b7100000000000000000000000000000000000000000000000000000000600052604160045260246000fd5b610f6182610f18565b810181811067ffffffffffffffff82111715610f8057610f7f610f29565b5b80604052505050565b6000610f93610b76565b9050610f9f8282610f58565b919050565b600081519050610fb381610b8f565b92915050565b600060808284031215610fcf57610fce610f13565b5b610fd96080610f89565b90506000610fe984828501610fa4565b6000830152506020610ffd84828501610fa4565b602083015250604061101184828501610fa4565b604083015250606061102584828501610ea2565b60608301525092915050565b60006080828403121561104757611046610b80565b5b600061105584828501610fb9565b91505092915050565b600082825260208201905092915050565b7f556e617574686f72697a65640000000000000000000000000000000000000000600082015250565b60006110a5600c8361105e565b91506110b08261106f565b602082019050919050565b600060208201905081810360008301526110d481611098565b9050919050565b7f4e487b7100000000000000000000000000000000000000000000000000000000600052601160045260246000fd5b600061111582610b85565b91507fffffffffffffffffffffffffffffffffffffffffffffffffffffffffffffffff8203611147576111466110db565b5b600182019050919050565b60006040820190506111676000830185610d38565b6111746020830184610c73565b9392505050565b6003811061118c5761118b610ee4565b5b50565b600081905061119d8261117b565b919050565b60006111ad8261118f565b9050919050565b6111bd816111a2565b82525050565b60006020820190506111d860008301846111b4565b9291505056fea2646970667358221220ae39fef11536e1b6d822793d11258bac9882b04af43fd86691a4313ffe0f78d064736f6c634300081c0033",
  "linkReferences": {},
  "deployedLinkReferences": {}
}