{
  "_format": "hh-sol-artifact-1",
  "contractName": "RealEstateStaking",
  "sourceName": "contracts/RealEstateStaking.sol",
  "abi": [
    {
      "inputs": [
        {
          "internalType": "address",
          "name": "_token",
          "type": "address"
        }
      ],
      "stateMutability": "nonpayable",
      "type": "constructor"
    },
    {
      "inputs": [
        {
          "internalType": "address",
          "name": "owner",
          "type": "address"
        }
      ],
      "name": "OwnableInvalidOwner",
      "type": "error"
    },
    {
      "inputs": [
        {
          "internalType": "address",
          "name": "account",
          "type": "address"
        }
      ],
      "name": "OwnableUnauthorizedAccount",
      "type": "error"
    },
    {
      "anonymous": false,
      "inputs": [
        {
          "indexed": true,
          "internalType": "address",
          "name": "previousOwner",
          "type": "address"
        },
        {
          "indexed": true,
          "internalType": "address",
          "name": "newOwner",
          "type": "address"
        }
      ],
      "name": "OwnershipTransferred",
      "type": "event"
    },
    {
      "anonymous": false,
      "inputs": [
        {
          "indexed": true,
          "internalType": "address",
          "name": "user",
          "type": "address"
        },
        {
          "indexed": false,
          "internalType": "uint256",
          "name": "amount",
          "type": "uint256"
        },
        {
          "indexed": false,
          "internalType": "uint256",
          "name": "duration",
          "type": "uint256"
        }
      ],
      "name": "Staked",
      "type": "event"
    },
    {
      "anonymous": false,
      "inputs": [
        {
          "indexed": true,
          "internalType": "address",
          "name": "user",
          "type": "address"
        },
        {
          "indexed": false,
          "internalType": "uint256",
          "name": "reward",
          "type": "uint256"
        }
      ],
      "name": "Unstaked",
      "type": "event"
    },
    {
      "inputs": [],
      "name": "SECONDS_IN_MONTH",
      "outputs": [
        {
          "internalType": "uint256",
          "name": "",
          "type": "uint256"
        }
      ],
      "stateMutability": "view",
      "type": "function"
    },
    {
      "inputs": [
        {
          "internalType": "uint256",
          "name": "amount",
          "type": "uint256"
        }
      ],
      "name": "fundContract",
      "outputs": [],
      "stateMutability": "nonpayable",
      "type": "function"
    },
    {
      "inputs": [
        {
          "internalType": "address",
          "name": "user",
          "type": "address"
        }
      ],
      "name": "hasActiveStake",
      "outputs": [
        {
          "internalType": "bool",
          "name": "",
          "type": "bool"
        }
      ],
      "stateMutability": "view",
      "type": "function"
    },
    {
      "inputs": [],
      "name": "monthlyRewardPercent",
      "outputs": [
        {
          "internalType": "uint256",
          "name": "",
          "type": "uint256"
        }
      ],
      "stateMutability": "view",
      "type": "function"
    },
    {
      "inputs": [],
      "name": "owner",
      "outputs": [
        {
          "internalType": "address",
          "name": "",
          "type": "address"
        }
      ],
      "stateMutability": "view",
      "type": "function"
    },
    {
      "inputs": [],
      "name": "realEstateToken",
      "outputs": [
        {
          "internalType": "contract IERC20",
          "name": "",
          "type": "address"
        }
      ],
      "stateMutability": "view",
      "type": "function"
    },
    {
      "inputs": [],
      "name": "renounceOwnership",
      "outputs": [],
      "stateMutability": "nonpayable",
      "type": "function"
    },
    {
      "inputs": [
        {
          "internalType": "uint256",
          "name": "amount",
          "type": "uint256"
        },
        {
          "internalType": "uint256",
          "name": "durationInSeconds",
          "type": "uint256"
        }
      ],
      "name": "stake",
      "outputs": [],
      "stateMutability": "nonpayable",
      "type": "function"
    },
    {
      "inputs": [
        {
          "internalType": "address",
          "name": "",
          "type": "address"
        }
      ],
      "name": "stakes",
      "outputs": [
        {
          "internalType": "uint256",
          "name": "amount",
          "type": "uint256"
        },
        {
          "internalType": "uint256",
          "name": "startTime",
          "type": "uint256"
        },
        {
          "internalType": "uint256",
          "name": "duration",
          "type": "uint256"
        },
        {
          "internalType": "bool",
          "name": "claimed",
          "type": "bool"
        }
      ],
      "stateMutability": "view",
      "type": "function"
    },
    {
      "inputs": [
        {
          "internalType": "address",
          "name": "newOwner",
          "type": "address"
        }
      ],
      "name": "transferOwnership",
      "outputs": [],
      "stateMutability": "nonpayable",
      "type": "function"
    },
    {
      "inputs": [],
      "name": "unstake",
      "outputs": [],
      "stateMutability": "nonpayable",
      "type": "function"
    }
  ],
  "bytecode": "0x6080604052600a60025534801561001557600080fd5b5060405161157438038061157483398181016040528101906100379190610228565b33600073ffffffffffffffffffffffffffffffffffffffff168173ffffffffffffffffffffffffffffffffffffffff16036100aa5760006040517f1e4fbdf70000000000000000000000000000000000000000000000000000000081526004016100a19190610264565b60405180910390fd5b6100b98161010160201b60201c565b5080600160006101000a81548173ffffffffffffffffffffffffffffffffffffffff021916908373ffffffffffffffffffffffffffffffffffffffff1602179055505061027f565b60008060009054906101000a900473ffffffffffffffffffffffffffffffffffffffff169050816000806101000a81548173ffffffffffffffffffffffffffffffffffffffff021916908373ffffffffffffffffffffffffffffffffffffffff1602179055508173ffffffffffffffffffffffffffffffffffffffff168173ffffffffffffffffffffffffffffffffffffffff167f8be0079c531659141344cd1fd0a4f28419497f9722a3daafe3b4186f6b6457e060405160405180910390a35050565b600080fd5b600073ffffffffffffffffffffffffffffffffffffffff82169050919050565b60006101f5826101ca565b9050919050565b610205816101ea565b811461021057600080fd5b50565b600081519050610222816101fc565b92915050565b60006020828403121561023e5761023d6101c5565b5b600061024c84828501610213565b91505092915050565b61025e816101ea565b82525050565b60006020820190506102796000830184610255565b92915050565b6112e68061028e6000396000f3fe608060405234801561001057600080fd5b50600436106100a95760003560e01c8063715018a611610071578063715018a6146101555780637b0472f01461015f5780638da5cb5b1461017b578063d4e9f95114610199578063f2fde38b146101b7578063fc152729146101d3576100a9565b806316934fc4146100ae57806327855b13146100e15780632def6620146100ff5780633519a2f81461010957806369486d2914610125575b600080fd5b6100c860048036038101906100c39190610bab565b6101f1565b6040516100d89493929190610c0c565b60405180910390f35b6100e961022e565b6040516100f69190610c51565b60405180910390f35b610107610235565b005b610123600480360381019061011e9190610c98565b6104cb565b005b61013f600480360381019061013a9190610bab565b6105b7565b60405161014c9190610cc5565b60405180910390f35b61015d61065d565b005b61017960048036038101906101749190610ce0565b610671565b005b61018361091a565b6040516101909190610d2f565b60405180910390f35b6101a1610943565b6040516101ae9190610da9565b60405180910390f35b6101d160048036038101906101cc9190610bab565b610969565b005b6101db6109ef565b6040516101e89190610c51565b60405180910390f35b60036020528060005260406000206000915090508060000154908060010154908060020154908060030160009054906101000a900460ff16905084565b62278d0081565b6000600360003373ffffffffffffffffffffffffffffffffffffffff1673ffffffffffffffffffffffffffffffffffffffff168152602001908152602001600020905060008160000154116102bf576040517f08c379a00000000000000000000000000000000000000000000000000000000081526004016102b690610e21565b60405180910390fd5b8060030160009054906101000a900460ff1615610311576040517f08c379a000000000000000000000000000000000000000000000000000000000815260040161030890610e8d565b60405180910390fd5b806002015481600101546103259190610edc565b421015610367576040517f08c379a000000000000000000000000000000000000000000000000000000000815260040161035e90610f5c565b60405180910390fd5b600062278d00826002015461037c9190610fab565b9050600060648260025485600001546103959190610fdc565b61039f9190610fdc565b6103a99190610fab565b905060018360030160006101000a81548160ff021916908315150217905550600160009054906101000a900473ffffffffffffffffffffffffffffffffffffffff1673ffffffffffffffffffffffffffffffffffffffff1663a9059cbb338386600001546104179190610edc565b6040518363ffffffff1660e01b815260040161043492919061101e565b6020604051808303816000875af1158015610453573d6000803e3d6000fd5b505050506040513d601f19601f820116820180604052508101906104779190611073565b503373ffffffffffffffffffffffffffffffffffffffff167f0f5bb82176feb1b5e747e28471aa92156a04d9f3ab9f45f28e2d704232b93f75826040516104be9190610c51565b60405180910390a2505050565b6104d36109f5565b600160009054906101000a900473ffffffffffffffffffffffffffffffffffffffff1673ffffffffffffffffffffffffffffffffffffffff166323b872dd3330846040518463ffffffff1660e01b8152600401610532939291906110a0565b6020604051808303816000875af1158015610551573d6000803e3d6000fd5b505050506040513d601f19601f820116820180604052508101906105759190611073565b6105b4576040517f08c379a00000000000000000000000000000000000000000000000000000000081526004016105ab90611123565b60405180910390fd5b50565b600080600360008473ffffffffffffffffffffffffffffffffffffffff1673ffffffffffffffffffffffffffffffffffffffff1681526020019081526020016000206040518060800160405290816000820154815260200160018201548152602001600282015481526020016003820160009054906101000a900460ff16151515158152505090506000816000015111801561065557508060600151155b915050919050565b6106656109f5565b61066f6000610a7c565b565b600082116106b4576040517f08c379a00000000000000000000000000000000000000000000000000000000081526004016106ab9061118f565b60405180910390fd5b62278d008110156106fa576040517f08c379a00000000000000000000000000000000000000000000000000000000081526004016106f1906111fb565b60405180910390fd5b6000600360003373ffffffffffffffffffffffffffffffffffffffff1673ffffffffffffffffffffffffffffffffffffffff168152602001908152602001600020600001541461077f576040517f08c379a000000000000000000000000000000000000000000000000000000000815260040161077690611267565b60405180910390fd5b600160009054906101000a900473ffffffffffffffffffffffffffffffffffffffff1673ffffffffffffffffffffffffffffffffffffffff166323b872dd3330856040518463ffffffff1660e01b81526004016107de939291906110a0565b6020604051808303816000875af11580156107fd573d6000803e3d6000fd5b505050506040513d601f19601f820116820180604052508101906108219190611073565b50604051806080016040528083815260200142815260200182815260200160001515815250600360003373ffffffffffffffffffffffffffffffffffffffff1673ffffffffffffffffffffffffffffffffffffffff16815260200190815260200160002060008201518160000155602082015181600101556040820151816002015560608201518160030160006101000a81548160ff0219169083151502179055509050503373ffffffffffffffffffffffffffffffffffffffff167f1449c6dd7851abc30abf37f57715f492010519147cc2652fbc38202c18a6ee90838360405161090e929190611287565b60405180910390a25050565b60008060009054906101000a900473ffffffffffffffffffffffffffffffffffffffff16905090565b600160009054906101000a900473ffffffffffffffffffffffffffffffffffffffff1681565b6109716109f5565b600073ffffffffffffffffffffffffffffffffffffffff168173ffffffffffffffffffffffffffffffffffffffff16036109e35760006040517f1e4fbdf70000000000000000000000000000000000000000000000000000000081526004016109da9190610d2f565b60405180910390fd5b6109ec81610a7c565b50565b60025481565b6109fd610b40565b73ffffffffffffffffffffffffffffffffffffffff16610a1b61091a565b73ffffffffffffffffffffffffffffffffffffffff1614610a7a57610a3e610b40565b6040517f118cdaa7000000000000000000000000000000000000000000000000000000008152600401610a719190610d2f565b60405180910390fd5b565b60008060009054906101000a900473ffffffffffffffffffffffffffffffffffffffff169050816000806101000a81548173ffffffffffffffffffffffffffffffffffffffff021916908373ffffffffffffffffffffffffffffffffffffffff1602179055508173ffffffffffffffffffffffffffffffffffffffff168173ffffffffffffffffffffffffffffffffffffffff167f8be0079c531659141344cd1fd0a4f28419497f9722a3daafe3b4186f6b6457e060405160405180910390a35050565b600033905090565b600080fd5b600073ffffffffffffffffffffffffffffffffffffffff82169050919050565b6000610b7882610b4d565b9050919050565b610b8881610b6d565b8114610b9357600080fd5b50565b600081359050610ba581610b7f565b92915050565b600060208284031215610bc157610bc0610b48565b5b6000610bcf84828501610b96565b91505092915050565b6000819050919050565b610beb81610bd8565b82525050565b60008115159050919050565b610c0681610bf1565b82525050565b6000608082019050610c216000830187610be2565b610c2e6020830186610be2565b610c3b6040830185610be2565b610c486060830184610bfd565b95945050505050565b6000602082019050610c666000830184610be2565b92915050565b610c7581610bd8565b8114610c8057600080fd5b50565b600081359050610c9281610c6c565b92915050565b600060208284031215610cae57610cad610b48565b5b6000610cbc84828501610c83565b91505092915050565b6000602082019050610cda6000830184610bfd565b92915050565b60008060408385031215610cf757610cf6610b48565b5b6000610d0585828601610c83565b9250506020610d1685828601610c83565b9150509250929050565b610d2981610b6d565b82525050565b6000602082019050610d446000830184610d20565b92915050565b6000819050919050565b6000610d6f610d6a610d6584610b4d565b610d4a565b610b4d565b9050919050565b6000610d8182610d54565b9050919050565b6000610d9382610d76565b9050919050565b610da381610d88565b82525050565b6000602082019050610dbe6000830184610d9a565b92915050565b600082825260208201905092915050565b7f4e6f20616374697665207374616b650000000000000000000000000000000000600082015250565b6000610e0b600f83610dc4565b9150610e1682610dd5565b602082019050919050565b60006020820190508181036000830152610e3a81610dfe565b9050919050565b7f416c726561647920636c61696d65640000000000000000000000000000000000600082015250565b6000610e77600f83610dc4565b9150610e8282610e41565b602082019050919050565b60006020820190508181036000830152610ea681610e6a565b9050919050565b7f4e487b7100000000000000000000000000000000000000000000000000000000600052601160045260246000fd5b6000610ee782610bd8565b9150610ef283610bd8565b9250828201905080821115610f0a57610f09610ead565b5b92915050565b7f5374616b65206e6f74206d617475726564000000000000000000000000000000600082015250565b6000610f46601183610dc4565b9150610f5182610f10565b602082019050919050565b60006020820190508181036000830152610f7581610f39565b9050919050565b7f4e487b7100000000000000000000000000000000000000000000000000000000600052601260045260246000fd5b6000610fb682610bd8565b9150610fc183610bd8565b925082610fd157610fd0610f7c565b5b828204905092915050565b6000610fe782610bd8565b9150610ff283610bd8565b925082820261100081610bd8565b9150828204841483151761101757611016610ead565b5b5092915050565b60006040820190506110336000830185610d20565b6110406020830184610be2565b9392505050565b61105081610bf1565b811461105b57600080fd5b50565b60008151905061106d81611047565b92915050565b60006020828403121561108957611088610b48565b5b60006110978482850161105e565b91505092915050565b60006060820190506110b56000830186610d20565b6110c26020830185610d20565b6110cf6040830184610be2565b949350505050565b7f46756e64696e67206661696c6564000000000000000000000000000000000000600082015250565b600061110d600e83610dc4565b9150611118826110d7565b602082019050919050565b6000602082019050818103600083015261113c81611100565b9050919050565b7f43616e6e6f74207374616b652030000000000000000000000000000000000000600082015250565b6000611179600e83610dc4565b915061118482611143565b602082019050919050565b600060208201905081810360008301526111a88161116c565b9050919050565b7f4d696e696d756d207374616b653a203330206461797300000000000000000000600082015250565b60006111e5601683610dc4565b91506111f0826111af565b602082019050919050565b60006020820190508181036000830152611214816111d8565b9050919050565b7f416c7265616479207374616b696e670000000000000000000000000000000000600082015250565b6000611251600f83610dc4565b915061125c8261121b565b602082019050919050565b6000602082019050818103600083015261128081611244565b9050919050565b600060408201905061129c6000830185610be2565b6112a96020830184610be2565b939250505056fea26469706673582212201edb22b58973ad173a8d7688122f8d54517d6a70b31e98e605ce5fe7b4101ba864736f6c634300081c0033",
  "linkReferences": {},
  "deployedLinkReferences": {}
}